:100000009EC10000C4C10000C2C10000C0C1000008
:10001000BEC10000BCC10000BAC10000B8C10000F0
:10002000B6C10000B4C100000C94871B0C941B1CCB
:10003000AEC10000ACC10000AAC10000A8C1000010
:10004000A6C10000A4C10000A2C10000A0C1000020
:100050009EC100009CC100009AC100000C94BB1A14
:1000600096C1000094C1000092C1000090C1000040
:100070008EC100008CC100008AC1000088C1000050
:1000800086C1000084C1000082C1000080C1000060
:100090000C94B8117CC100007AC1000078C1000046
:1000A00076C1000074C1000072C100002C5E746053
:1000B000616264346667656E362D3738271E1F20EF
:1000C0002122232425267333762E77785F444546F4
:1000D0004748494A4B4C4D4E4F5051525354555638
:1000E0005758595A5B5C5D2F3130636D35040506F6
:1000F0000708090A0B0C0D0E0F1011121314151618
:100100001718191A1B1C1D6F7170752A0001000049
:100110007001120002000082017400220000F6014A
:100120005500210000940109002201004B02330018
:10013000210100AD0109002202007E0221002102FE
:1001400000C60109002203009F025500210300E6BA
:10015000010900030000F4020401030904F8023E4F
:1001600001C13601C02601C10601C10601C1160048
:100170001201000200000040C016820405010001C7
:10018000000109027400040100C0320904000001EA
:100190000301010009211101000122550007058317
:1001A00003080001090401000103010200092111F3
:1001B000010001223300070584030800010904023D
:1001C00000020300000009211101000122210007A3
:1001D0000581034000010705020320000209040312
:1001E0000001030000000921110100012255000750
:1001F0000585030C000205010906A101750195089A
:10020000050719E029E71500250181029508750108
:1002100015002501050C09E909EA09E209CD09B52E
:1002200009B609B709B881029505750105081901D4
:10023000290591029501750391039506750815002E
:10024000257F05071900297F8100C005010902A14A
:10025000010509190129031500250195037501817F
:1002600002950175058103050109300931158125C4
:100270007F750895028106093895018106C006C977
:10028000FF0904A15C7508150026FF00954009755B
:10029000810295200976910295040976B102C00584
:1002A000010904A101150025017501952005091911
:1002B0000129208102150025073500463B01750400
:1002C0009501651405010939814205010901A10063
:1002D000150026FF03750A95040930093109320912
:1002E000358102C0150026FF03750A9502093609FB
:1002F000368102C0040309043E0354006500650012
:100300006E007300790020004B00650079006200E8
:100310006F006100720064002F004D006F007500D7
:10032000730065002F004A006F00790073007400AD
:10033000690063006B000000CB014510451A1124D1
:100340001FBECFEFDAE0DEBFCDBF12E0A0E0B1E02C
:10035000EEE1FCE302C005900D92A63AB107D9F791
:1003600015E0A6EAB2E001C01D92A13EB107E1F797
:1003700013E0CEE3D3E004C02297FE010E94091EE1
:10038000C833D107C9F70E947D170C940D1E38CED3
:100390000895089508952F923F924F925F926F9221
:1003A0007F928F929F92AF92BF92CF92DF92EF9205
:1003B000FF920F931F93CF93DF9389E192E0909385
:1003C000A7028093A6021092A8021092A90222E02E
:1003D00030E83093AB022093AA029093AD02809351
:1003E000AC021092AE021092AF023093B102209391
:1003F000B0029093B3028093B2021092B4021092B2
:10040000B50280E290E89093B7028093B60281E152
:1004100092E09093B9028093B80261E070E8709323
:10042000BB026093BA029093BD028093BC0244E089
:1004300050E85093BF024093BE029093C102809354
:10044000C00228E030E83093C3022093C2029093A8
:10045000C5028093C4027093C7026093C602909352
:10046000C9028093C8025093CB024093CA02909372
:10047000CD028093CC023093CF022093CE02909392
:10048000D1028093D00220E130E83093D302209350
:10049000D2029093D5028093D40220E430E83093C6
:1004A000D7022093D6029093D9028093D80220E8F5
:1004B00030E83093DB022093DA029093DD028093E0
:1004C000DC0221E030E03093DF022093DE029093E3
:1004D000E1028093E00222E030E03093E3022093D7
:1004E000E2029093E5028093E40224E030E030934E
:1004F000E7022093E6029093E9028093E80228E065
:1005000030E03093EB022093EA029093ED02809367
:10051000EC0220E130E03093EF022093EE02909362
:10052000F1028093F00220E230E03093F302209356
:10053000F2029093F5028093F40220E430E03093CD
:10054000F7022093F6029093F9028093F80220E8D4
:1005500030E03093FB022093FA029093FD028093E7
:10056000FC0224E030E43093FF022093FE029093DB
:1005700001038093000325E030E4309303032093CC
:100580000203909305038093040326E030E4309344
:10059000070320930603909309038093080327E041
:1005A00030E430930B0320930A0390930D03809360
:1005B0000C0328E030E430930F0320930E03909354
:1005C00011038093100329E030E430931303209348
:1005D000120390931503809314032AE030E43093C0
:1005E00017032093160390931903809318032BE0AD
:1005F00030E430931B0320931A0390931D038093E0
:100600001C032CE030E430931F0320931E039093CF
:100610002103809320032DE030E4309323032093C3
:10062000220390932503809324032EE030E430933B
:1006300027032093260390932903809328032FE018
:1006400030E430932B0320932A0390932D0380935F
:100650002C0320E130E430932F0320932E0390935A
:1006600031038093300321E130E43093330320934E
:100670003203909335038093340322E130E43093C6
:10068000370320933603909339038093380323E193
:1006900030E430933B0320933A0390933D038093DF
:1006A0003C0324E130E430933F0320933E039093D6
:1006B00041038093400325E130E4309343032093CA
:1006C0004203909345038093440326E130E4309342
:1006D000470320934603909349038093480327E1FF
:1006E00030E430934B0320934A0390934D0380935F
:1006F0004C0328E130E430934F0320934E03909352
:1007000051038093500329E130E430935303209345
:10071000520390935503809354032AE130E43093BD
:1007200057032093560390935903809358032BE16A
:1007300030E430935B0320935A0390935D038093DE
:100740005C032CE130E430935F0320935E039093CD
:100750006103809360032DE130E4309363032093C1
:10076000620390936503809364032EE130E4309339
:1007700067032093660390936903809368032FE1D6
:1007800030E430936B0320936A0390936D0380935E
:100790006C0320E230E430936F0320936E03909358
:1007A00071038093700321E230E43093730320934C
:1007B0007203909375038093740322E230E43093C4
:1007C000770320937603909379038093780323E251
:1007D00030E430937B0320937A0390937D038093DE
:1007E0007C0324E230E430937F0320937E039093D4
:1007F00081038093800325E230E4309383032093C8
:1008000082039093850380938403C6E2D0E4D0935F
:100810008703C09386039093890380938803E7E25C
:100820002E2EE0E43E2E30928B0320928A0390938A
:100830008D0380938C0328E230E430938F03209360
:100840008E03909391038093900329E230E43093D8
:1008500093032093920390939503809394032AE249
:1008600030E43093970320939603909399038093F9
:1008700098032BE230E430939B0320939A039093E8
:100880009D0380939C032CE230E430939F032093DC
:100890009E039093A1038093A0037DE2672E70E4F2
:1008A000772E7092A3036092A2039093A503809386
:1008B000A4036EE2462E60E4562E5092A7034092A7
:1008C000A6039093A9038093A8035FE2A52E50E4AA
:1008D000B52EB092AB03A092AA039093AD03809380
:1008E000AC0340E3842E40E4942E9092AF038092B8
:1008F000AE039093B1038093B00331E3C32E30E491
:10090000D32ED092B303C092B2039093B5038093D9
:10091000B40303E310E41093B7030093B60390937A
:10092000B9038093B80324E3E22E20E4F22EF09280
:10093000BB03E092BA039093BD038093BC03A5E38D
:10094000B0E4B093BF03A093BE039093C103809320
:10095000C00366E370E47093C3036093C203909393
:10096000C5038093C403E7E3F0E4F093C703E09387
:10097000C6039093C9038093C80348E350E450939F
:10098000CB034093CA039093CD038093CC0329E318
:1009900030E43093CF032093CE039093D103809320
:1009A000D0032AE330E43093D3032093D20390930F
:1009B000D5038093D4032BE330E43093D703209303
:1009C000D6039093D9038093D8032CE330E430937B
:1009D000DB032093DA039093DD038093DC032DE3A4
:1009E00030E43093DF032093DE039093E1038093A0
:1009F000E0032EE330E43093E3032093E20390938B
:100A0000E5038093E4032FE330E43093E70320937E
:100A1000E6039093E9038093E80320E430E4309305
:100A2000EB032093EA039093ED038093EC0321E41E
:100A300030E43093EF032093EE039093F10380931F
:100A4000F00322E430E43093F3032093F203909315
:100A5000F5038093F40323E430E43093F703209309
:100A6000F6039093F9038093F80324E430E4309381
:100A7000FB032093FA039093FD038093FC0325E48A
:100A800030E43093FF032093FE039093010480939E
:100A9000000426E430E4309303042093020490938E
:100AA00005048093040427E430E430930704209382
:100AB0000604909309048093080428E430E43093FA
:100AC0000B0420930A0490930D0480930C0429E4F2
:100AD00030E430930F0420930E049093110480931C
:100AE00010042AE430E4309313042093120490930A
:100AF0001504809314042BE430E4309317042093FE
:100B0000160490931904809318042CE430E4309375
:100B10001B0420931A0490931D0480931C042DE45D
:100B200030E430931F0420931E049093210480939B
:100B300020042EE430E43093230420932204909385
:100B40002504809324042FE430E430932704209379
:100B50002604909329048093280420E530E4309300
:100B60002B0420932A0490932D0480932C0421E5D8
:100B700030E430932F0420932E049093310480931B
:100B8000300422E530E43093330420933204909310
:100B900035048093340423E530E430933704209304
:100BA0003604909339048093380424E530E430937C
:100BB0003B0420933A0490933D0480933C0425E544
:100BC00030E430933F0420933E049093410480939B
:100BD000400426E530E4309343042093420490938C
:100BE00045048093440427E530E430934704209380
:100BF0004604909349048093480428E530E43093F8
:100C00004B0420934A0490934D0480934C0429E5AF
:100C100030E430934F0420934E049093510480931A
:100C200050042AE530E43093530420935204909307
:100C30005504809354042BE530E4309357042093FB
:100C4000560490935904809358042CE530E4309373
:100C50005B0420935A0490935D0480935C042DE51B
:100C600030E430935F0420935E049093610480939A
:100C700060042EE530E43093630420936204909383
:100C80006504809364042FE530E430936704209377
:100C90006604909369048093680420E630E43093FE
:100CA0006B0420936A0490936D0480936C0421E696
:100CB00030E430936F0420936E049093710480931A
:100CC000700422E630E4309373042093720490930E
:100CD00075048093740423E630E430937704209302
:100CE0007604909379048093780425E630E4309379
:100CF0007B0420937A0490937D0480937C0428E6FF
:100D000030E430937F0420937E0490938104809399
:100D1000800429E630E43093830420938204909386
:100D20008504809384042AE630E43093870420937A
:100D3000860490938904809388042BE630E43093F2
:100D40008B0420938A0490938D0480938C042CE66A
:100D500030E430938F0420938E0490939104809319
:100D600090042DE630E43093930420939204909302
:100D70009504809394042EE630E4309397042093F6
:100D8000960490939904809398042FE630E430936E
:100D90009B0420939A0490939D0480939C0420E7E5
:100DA00030E430939F0420939E049093A104809399
:100DB000A00421E730E43093A3042093A20490938D
:100DC000A5048093A40422E730E43093A704209381
:100DD000A6049093A9048093A80483E790E49093D9
:100DE000AB048093AA0489E292E09093AD048093CF
:100DF000AC042EE130E43093AF042093AE04909322
:100E0000B1048093B0042FE130E43093B304209315
:100E1000B2049093B5048093B40420E230E430939C
:100E2000B7042093B6049093B9048093B80421E2E8
:100E300030E43093BB042093BA049093BD048093B4
:100E4000BC0422E230E43093BF042093BE049093AC
:100E5000C1048093C00423E230E43093C3042093A0
:100E6000C2049093C5048093C40424E230E4309318
:100E7000C7042093C6049093C9048093C80425E254
:100E800030E43093CB042093CA049093CD04809334
:100E9000CC04D093CF04C093CE049093D10480931C
:100EA000D0043092D3042092D2049093D50480933E
:100EB000D4047092D7046092D6049093D90480939E
:100EC000D8045092DB044092DA049093DD048093BE
:100ED000DC04B092DF04A092DE049093E1048093DE
:100EE000E0049092E3048092E2049093E5048093FE
:100EF000E404D092E704C092E6049093E90480935E
:100F0000E8041093EB040093EA049093ED048093BB
:100F1000EC04F092EF04E092EE049093F1048093DD
:100F2000F004B093F304A093F2049093F50480933B
:100F3000F4047093F7046093F6049093F90480939B
:100F4000F804F093FB04E093FA049093FD0480937B
:100F5000FC045093FF044093FE048FE091E09093D3
:100F600001058093000586EA90E090930305809345
:100F7000020580E091E0909305058093040581E0EF
:100F8000809306051092070510920805DF91CF9116
:100F90001F910F91FF90EF90DF90CF90BF90AF9097
:100FA0009F908F907F906F905F904F903F902F9089
:100FB00008955F926F927F928F929F92AF92BF92AD
:100FC000CF92DF92EF92FF920F931F93DF93CF9315
:100FD000CDB7DEB7CC50D4400FB6F894DEBF0FBE0D
:100FE000CDBF89E892E09E878D871F8681E792E0DA
:100FF0009A83898389E792E09C838B8321E832E09E
:10100000398B288B81E08A8B3C8B2B8B82E08D8BFC
:1010100081E692E09F8B8E8B93E0988F29E632E0F9
:101020003A8F298F84E08B8F3D8F2C8F9E8F81E2AA
:1010300092E09E838D83FE01E953FE4F81E592E0AD
:10104000918380839C01285F3F4F3383228368E034
:1010500070E0758364831782168211861086FE0104
:10106000EF52FE4F918380833383228348EF5FEFFB
:10107000558344831782168211861086FE01E5523D
:10108000FE4F91838083338322831582148277837A
:10109000668311861086FE01EB51FE4F918380839B
:1010A00033832283158214825783468311861086E8
:1010B000FE01E151FE4F918380833383228360E1FF
:1010C00070E0758364831782168211861086FE0194
:1010D000E750FE4F918380833383228340EF5FEF9D
:1010E000558344831782168211861086FE01ED5FB8
:1010F000FD4F91838083338322831582148277830B
:10110000668311861086FE01E35FFD4F9183808325
:101110003383228315821482578346831186108677
:10112000FE01EB5DFE4F21E432E031832083A90113
:10113000485F5F4F5383428381E090E095838483CF
:10114000FE01E55DFE4F318320835383428384E0BB
:1011500090E095838483FE01EF5CFE4F3183208312
:101160005383428382E090E095838483CE01895C3F
:101170009E4F60E370E041E350E023E70E944C158E
:10118000CE01895E9D4F64E270E045E250E023E2CB
:1011900030E00FE00E947113CE018F5D9D4F6AE237
:1011A00070E04BE250E029E230E00CE00E94711365
:1011B000DE01A55DBD4FEBEDF1E08AE001900D92FF
:1011C0008150E1F7FE01E459FF4F89E392E09183FA
:1011D0008083CE01855D9D4F93838283DE01AB5C6E
:1011E000BD4FE1EDF1E08AE001900D928150E1F711
:1011F000FE01EF58FF4F89E392E091838083CE0197
:101200008B5C9D4F93838283DE01A15CBD4FE7EC35
:10121000F1E08AE001900D928150E1F7FE01EA5879
:10122000FF4F29E332E031832083CE01815C9D4F63
:1012300093838283FE01E75BFD4F8AE0DF011D920D
:101240008A95E9F780E493E09183808388EB94E0CA
:101250009383828380E394E095838483918780875E
:10126000CE01815F9D4F97838683DE01A558BF4FD6
:1012700011963C932E931396FC93EE931297DE01F6
:10128000AD5ABD4FEDEBF1E08AE001900D92815037
:10129000E1F7FE01E058FF4F89E392E091838083FC
:1012A000CE018D5A9D4F93838283DE01A35ABD4F99
:1012B000E3EBF1E08AE001900D928150E1F7FE014D
:1012C000EB57FF4F89E392E091838083CE01835AED
:1012D0009D4F93838283DE01A959BD4FE9EAF1E076
:1012E0008AE001900D928150E1F7FE01E657FF4F31
:1012F00029E332E031832083CE0189599D4F9383C6
:101300008283FE01EF58FD4F8AE0DF011D928A952E
:10131000E9F784E193E09183808384E793E093830A
:10132000828384E294E09583848391878087CE01D1
:101330008F509E4F97838683DE01A157BF4F119632
:101340003C932E931396FC93EE931297DE01A558CF
:10135000BD4FEFE9F1E08AE001900D928150E1F795
:10136000FE01EC56FF4F29E332E031832083CE01AA
:1013700085589D4F93838283FE01EB57FD4F4AE0D2
:10138000DF01842F1D928A95E9F784E493E091832D
:10139000808388E693E09383828388EB94E095834F
:1013A0008483CE018D5C9E4F97838683918780874F
:1013B000DE01A756BF4F11963C932E931396FC93D4
:1013C000EE931297FE01E157FD4FDF01842F1D922E
:1013D0008A95E9F788E093E0918380838CE693E037
:1013E0009383828384EC94E095838483CE014C962E
:1013F0009783868391878087DE01A256BF4F11961F
:101400003C932E931396FC93EE931297FE01E756AE
:10141000FD4FDF011D924A95E9F780E193E091834A
:10142000808380E793E09383828380E194E09583D7
:10143000848391878087CE01895D9E4F97838683C1
:10144000DE01AD55BF4F11963C932E931396FC933E
:10145000EE931297DE01AD55BD4FE5E9F1E08AE06C
:1014600001900D928150E1F7FE01E855FF4F29E30D
:1014700032E031832083CE018D559D4F938382834B
:10148000FE01E355FD4F8AE0DF011D928A95E9F7E1
:1014900088E593E09183808380ED94E09583848355
:1014A00088ED93E09783868391878087CE010596A8
:1014B00093838283DE01A355BF4F11963C932E93F5
:1014C0001396FC93EE931297DE01A954BD4FEBE8FF
:1014D000F1E08AE001900D928150E1F7FE01EE54B7
:1014E000FF4F29E332E031832083CE0189549D4FA1
:1014F00093838283FE01EF53FD4F8AE0DF011D924B
:101500008A95E9F780E593E09183808380EA93E010
:10151000938382838CE294E0958384839187808790
:10152000CE018B5F9D4F97838683DE01A954BF4F09
:1015300011963C932E931396FC93EE93129721E30E
:1015400032E039A728A788E194E09BA78AA73DA7A6
:101550002CA780E993E09FA78EA7DE01A553BD4F7E
:10156000E1E8F1E08AE001900D928150E1F78CEB27
:10157000A82EB12CAC0EBD1E29E332E0F50131835B
:101580002083CE0185539D4F93838283FE01EB52CE
:10159000FD4F0AE0902EDF01892D1D928A95E9F713
:1015A0008CEE94E09183808388EC93E09383828334
:1015B00088E294E09583848391878087CE0185506B
:1015C0009E4F9783868311ECC12ED12CCC0EDD1E4D
:1015D000D60111963C932E931396FC93EE9312979B
:1015E00021E332E039AB28AB88E993E09BAB8AABCF
:1015F0003DAB2CAB88EB92E09FAB8EAB39AF28AF05
:1016000086EA92E09BAF8AAF3DAF2CAF8CEC93E0C3
:101610009FAF8EAFAE01405C5F4FFA0131832083F4
:101620008CE893E0FE01EE5BFF4F91838083BE0167
:101630006C5B7F4FDB0111963C932E93CE010D9690
:1016400013969C938E931297FE01EB53FC4F2CE064
:10165000DF01822F1D928A95E9F7CE0184599F4FB1
:1016600091838083CE018F589F4F93838283CE01D5
:101670008A589F4F95838483CE0185589F4F9783C7
:101680008683CE01C09691878087CE01CC969387C2
:101690008287BDE6EB2EB1E0FB2EEC0EFD1ED701DE
:1016A00014961C92149715961C9215971796FC93F6
:1016B000EE931697FE01EF52FC4FDF01822F1D9231
:1016C0008A95E9F7CE0180589F4F91838083CE01A0
:1016D0008B579F4F93838283CE0186579F4F95836D
:1016E0008483CE0181579F4F97838683CE01C49612
:1016F00091878087538742878E010A581E4FD801F1
:1017000014961C92149715961C9215971796FC9395
:10171000EE931697FE01E352FC4FDF011D922A95CE
:10172000E9F7CE018C569F4F91838083CE01875677
:101730009F4F93838283CE0182569F4F95838483EC
:10174000CE018D559F4F97838683CE01C896918792
:10175000808773876287BE0161587E4FDB011496D4
:101760001C92149715961C9215971796FC93EE935E
:101770001697FE01EB5BFE4F28E0DF01822F1D92E2
:101780008A95E9F7CE0188559F4F91838083CE01DA
:1017900083559F4F93838283CE018E549F4F9583B1
:1017A0008483CE0189549F4F97838683AE01485727
:1017B0005E4FDA0114961C92149715961C92159799
:1017C0001796FC93EE931697FE01E35BFE4FDF0145
:1017D0001D922A95E9F7CE01889691838083CE01E8
:1017E0008C9693838283B582A482D782C682A1E934
:1017F000CA2EA1E0DA2ECC0EDD1ED60114961C9264
:10180000149715961C9215971796FC93EE931697BE
:10181000CE01895C9E4F98878F839E01285B3F4F46
:10182000CE01895E9D4FF90191838083CE018F5D4A
:101830009D4F93838283FE01E152FD4FDF011D9294
:101840009A94E9F7F182E0821383028375836483BB
:1018500057834683D186C086DE01A751BD4FCE0196
:10186000079611969C938E9391E012969C931297F3
:1018700014963C932E93139782E015968C931597AC
:101880001796FC93EE93169785E018968C9300E3D9
:101890000F8F98A31FEF19A3CE01825C9E4FBE014C
:1018A000615E7F4F4FE10E94C2150AA31BA21CA3D9
:1018B000CE018B5A9E4FBE016E5D7F4F4FE357D7CF
:1018C000DE01AD50BD4FE7E7F1E08AE001900D92F7
:1018D0008150E1F7FE01EA53FF4F89E392E09183E3
:1018E0008083CE018D509D4F93838283DE01A35070
:1018F000BD4FEDE6F1E08AE001900D928150E1F7F5
:10190000FE01E553FF4F89E392E091838083CE018E
:1019100083509D4F93838283DE01A95FBC4FE3E632
:10192000F1E08AE001900D928150E1F7FE01E05371
:10193000FF4F29E332E031832083CE01895F9C4F42
:1019400093838283FE01EF5EFC4F4AE0DF01842F28
:101950001D928A95E9F78CE493E09183808384EC6F
:1019600094E0938382838CE793E09583848380E380
:1019700094E091878087CE0189519E4F978386831B
:10198000DE01AB52BF4F11963C932E931396FC93FE
:10199000EE931297FE01E55EFC4FDF011D924A9522
:1019A000E9F78CEA93E09183808388EF93E0978353
:1019B000868391878087CE01409693838283958327
:1019C0008483DE01A652BF4F11963C932E9313964B
:1019D000FC93EE931297DE01AB5DBC4FE9E5F1E0BD
:1019E0008AE001900D928150E1F7FE01E152FF4F34
:1019F00089E392E091838083CE018B5D9C4F93833A
:101A00008283DE01A15DBC4FEFE4F1E08AE001904A
:101A10000D928150E1F7FE01EC51FF4F29E332E0D6
:101A200031832083CE01815D9C4F93838283FE01AD
:101A3000E75CFC4F8AE0DF011D928A95E9F788E1B7
:101A400093E09183808388E793E09383828388E89F
:101A500093E09583848388E294E091878087CE0128
:101A60008D529E4F97838683DE01A751BF4F1196FB
:101A70003C932E931396FC93EE931297DE01AD5B8D
:101A8000BC4FE5E4F1E08AE001900D928150E1F76E
:101A9000FE01E251FF4F89E392E091838083CE0102
:101AA0008D5B9C4F93838283DE01A35BBC4FEBE392
:101AB000F1E08AE001900D928150E1F7FE01ED50D6
:101AC000FF4F29E332E031832083CE01835B9C4FBB
:101AD00093838283FE01E95AFC4F4AE0DF01842FA1
:101AE0001D928A95E9F784E293E09183808380E8F0
:101AF00093E09383828384E793E095838483CE018C
:101B000049969783868391878087DE01A850BF4FCF
:101B100011963C932E931396FC93EE931297FE012D
:101B2000EF59FC4FDF011D924A95E9F780E293E0FF
:101B3000918380838CE793E09383828380E793E0B3
:101B40009583848380E194E091878087CE01835DD3
:101B50009E4F97838683DE01A350BF4F11963C931F
:101B60002E931396FC93EE931297DE01A559BC4F6A
:101B7000E1E3F1E08AE001900D928150E1F7FE018E
:101B8000EE5FFE4F89E392E091838083CE01855919
:101B90009C4F93838283DE01AB58BC4FE7E2F1E0B8
:101BA0008AE001900D928150E1F7FE01E95FFE4F5E
:101BB00089E392E091838083CE018B589C4F93837D
:101BC0008283DE01A158BC4FEDE1F1E08AE0019093
:101BD0000D928150E1F7FE01E45FFE4F29E332E010
:101BE00031832083CE0181589C4F93838283FE01F1
:101BF000E757FC4F4AE0DF01842F1D928A95E9F7F1
:101C00008CE293E09183808388ED94E093838283D8
:101C100084E693E0958384838CE294E091878087C7
:101C2000CE0183529E4F97838683DE01AF5EBE4F07
:101C300011963C932E931396FC93EE931297FE010C
:101C4000ED56FC4FDF011D924A95E9F780EB93E0DA
:101C5000918380838CEF93E097838683918780873D
:101C6000CE0143969383828395838483DE01AA5EAB
:101C7000BE4F11963C932E931396FC93EE931297BE
:101C8000FE01E45BFF4F81E392E0918380838CE867
:101C900093E093838283DE01A356BC4FE3E1F1E03E
:101CA0008AE001900D928150E1F76BE1662E61E0D0
:101CB000762E6C0E7D1E29E332E0F3013183208302
:101CC000CE0183569C4F93838283FE01E955FC4FDE
:101CD0005AE0552EDF01852D1D928A95E9F788EB94
:101CE00093E09183808384ED94E09383828384E204
:101CF00094E091878087CE01059695838483CE01F9
:101D000087539E4F9783868340E2842E41E0942E32
:101D10008C0E9D1ED40111963C932E931396FC932A
:101D2000EE931297AE01405B5F4F21E332E0FA0180
:101D30003183208384E993E0938382838E010C5A5C
:101D40001F4FD80111963C932E938CEB92E0139683
:101D50009C938E93129798E5A92EB12CAC0EBD1EC4
:101D6000F50131832083CE010196938382838CE534
:101D7000C82ED12CCC0EDD1ED60111963C932E938D
:101D8000CE01039613969C938E931297BE01605AD0
:101D90007F4FFB01318320838CE993E0938382831F
:101DA000B4E6EB2EF12CEC0EFD1ED70111963C9300
:101DB0002E93CE01469613969C938E931297FE0116
:101DC000E751FC4F2CE0DF01822F1D928A95E9F745
:101DD000CE018A539F4F91838083CE0185539F4FBD
:101DE00093838283CE0180539F4F95838483CE015A
:101DF0008B529F4F9783868351874087D386C286B5
:101E0000AAE9CA2EA1E0DA2ECC0EDD1ED601149668
:101E10001C92149715961C9215971796FC93EE93A7
:101E20001697FE01EB50FC4FDF01822F1D928A9521
:101E3000E9F7CE0186529F4F91838083CE01815274
:101E40009F4F93838283CE018C519F4F95838483D0
:101E5000CE0187519F4F97838683118700877387B1
:101E60006287BE016D557E4FDB0114961C9214975C
:101E700015961C9215971796FC93EE931697FE01F4
:101E8000EF5FFB4FDF011D922A95E9F7CE018251EA
:101E90009F4F91838083CE018D509F4F9383828388
:101EA000CE0188509F4F95838483CE0183509F4FEE
:101EB00097838683B186A086F386E286AE01445579
:101EC0005E4FDA0114961C92149715961C92159782
:101ED0001796FC93EE931697FE01E35AFE4F18E017
:101EE000DF01812F1D928A95E9F7CE018E5F9E4F0B
:101EF00091838083CE01895F9E4F93838283CE013D
:101F0000845F9E4F95838483CE018F5E9E4F97831F
:101F100086839E012B543E4FD90114961C92149730
:101F200015961C9215971796FC93EE931697FE0143
:101F3000EB59FE4FDF011D921A95E9F7CE018A5E3B
:101F40009E4F91838083CE01845B9F4F93838283D6
:101F500075826482978286828E0102541E4FD80158
:101F600014961C92149715961C9215971796FC932D
:101F7000EE931697CE01825C9E4F9A878987CE0199
:101F80008B5A9E4F9C878B87FE01EF54FC4FDF01DD
:101F90001D925A94E9F7D182C0827383628355837C
:101FA00044833783268311870087DE01A554BC4F05
:101FB000CE01099611969C938E9321E012962C9354
:101FC0001297CE010B9614969C938E9313971596A9
:101FD0002C9315971796FC93EE93169785E0189619
:101FE0008C931897FE01E859FF4FCE0187519D4F02
:101FF00091838083B383A283FEA3EDA382E08FA3AA
:102000008E010B5D1F4FC801E9D3E02E012F8E2DED
:10201000902FE5D3FCCF81E080934F0560932C0592
:1020200010924D0510924E05089520912B0530E039
:1020300080912A05281B3109C901089540912A057C
:1020400080912B05481718F02FEF3FEF0AC0E42FBF
:10205000F0E0E65FFA4F8081282F30E04F5F409339
:102060002A05C9010895E0912A0580912B05E817FA
:1020700018F0EFEFFFEF06C0F0E0E65FFA4F808167
:10208000E82FF0E0CF01089508951092520588EEF0
:1020900093E0A0E0B0E08093530590935405A093A3
:1020A0005505B09356051092570589EE91E090932F
:1020B0005105809350050895CF92DF92EF92FF92E1
:1020C0000F931F93CF93DF937C016B018A01809163
:1020D0004F058823A1F0C0E0D0E00DC0D701ED91FD
:1020E000FC91D601AC0FBD1F0190F081E02DC7011E
:1020F0006C9109952196C017D10780F303C0CB01DD
:10210000642F1BD1C801DF91CF911F910F91FF90D8
:10211000EF90DF90CF900895DF93CF930F92CDB7DC
:10212000DEB7FC01698380914F058823B9F0809167
:102130004E05803228F081E0828320E030E014C038
:1021400080914D05E82FF0E0E35DFA4F998190838F
:102150008F5F80934D0580934E0504C0CE0101969C
:1021600061E0EBD021E030E0C9010F90CF91DF9129
:1021700008950F93062F80912C056DE275E0409134
:102180004E0521E085D010924D0510924E0510921B
:102190004F050F91089561E0ECCF413208F040E225
:1021A000862F6AE075E02BD010922A0580932B05CC
:1021B000089521E0F2CF10922A0510922B0510927B
:1021C0004D0510924E0500C01092580581E0809395
:1021D0005A0510925B05599A589A84B58F7D84BD33
:1021E000E9EBF0E080818E7F808380818D7F80832A
:1021F00088E48093B80085E48093BC000895382F6C
:10220000413210F040E042C0809158058823E1F748
:1022100091E09093580520935A058FEF8093C50560
:10222000109280054150409381054F5F909359056E
:1022300080915905330F832B8093590580915B055D
:10224000813041F410925B05809159058093BB0069
:1022500085EC01C085EE8093BC00809158058130EB
:10226000E1F380918005841710F44091800520E00F
:1022700030E00AC0FB01E20FF31FD901A05ABA4FA8
:102280008C9180832F5F3F4F2417A0F3842F0895F4
:102290000F931F93582F122F413210F081E04AC044
:1022A000809158058823E1F782E0809358050093D8
:1022B0005A058FEF8093C5051092800540938105E4
:1022C000A0E6B5E0FB0102C081918D938E2F861BA5
:1022D0008417D0F31092590580915905550F852B1D
:1022E0008093590580915B05813041F410925B0524
:1022F000809159058093BB0085EC01C085EE8093E9
:10230000BC00112321F0809158058230E1F38091C7
:10231000C5058F3F11F480E00DC08091C505803266
:1023200011F482E007C08091C505803311F084E08C
:1023300001C083E01F910F910895482F613210F082
:1023400081E0089580915805843011F082E008956D
:102350006093A305A2E8B5E0842F9C01F90102C0B7
:1023600081918D938E2F841B8617D0F380E0089582
:102370001F920F920FB60F9211242F933F934F93FA
:102380005F936F937F938F939F93AF93BF93EF93DD
:10239000FF938091B90090E0887F9070803691051E
:1023A00009F4F2C081369105CCF58832910509F423
:1023B0007BC089329105B4F48031910509F46FC076
:1023C000813191053CF4009709F447C1089709F061
:1023D0004FC165C08831910509F466C0809709F046
:1023E00047C182C08034910509F4A4C081349105AD
:1023F00044F48033910509F482C0C89709F038C1CC
:1024000089C08035910509F489C08835910509F4A2
:1024100096C08834910509F02BC1AEC0883991056A
:1024200009F413C189399105ECF48837910509F451
:10243000ABC0893791054CF48836910509F4A4C0E6
:102440008037910509F014C19FC08838910509F4BF
:10245000FCC08039910509F49DC08038910509F0D0
:1024600007C198C0803B910509F4C6C0813B910526
:102470004CF4803A910509F49FC0883A910509F01F
:10248000F7C0BAC0803C910509F4E3C0883C9105CF
:1024900009F4DFC0883B910509F0EAC0C2C0809111
:1024A00059058093BB00CFC0909180058091810534
:1024B000981768F490918005E92FF0E0E05AFA4F00
:1024C00080818093BB009F5F90938005BCC080910A
:1024D0005A05882309F44BC085ED8093BC00809198
:1024E000BC0084FDFCCFC2C080E28093C50585EDB1
:1024F0008093BC008091BC0084FDFCCFB7C080E31A
:102500008093C50585ED8093BC008091BC0084FD5F
:10251000FCCFACC088E38093C5059BC0809180054B
:102520009091BB00E82FF0E0E05AFA4F90838F5F64
:1025300080938005909180058091810582C0809173
:1025400080059091BB00E82FF0E0E05AFA4F9083AD
:102550008F5F8093800580915A05882341F085ED37
:102560008093BC008091BC0084FDFCCF7FC081E0E3
:1025700080935B0584EA6EC085ED8093BC008091FA
:10258000BC0084FDFCCF72C083E08093580510929C
:10259000C40559C08091C405803208F056C08091AE
:1025A000C4059091BB00E82FF0E0EC55FA4F908302
:1025B0008F5F8093C40547C08091C405803230F49A
:1025C000E091C405F0E0EC55FA4F108285ED809360
:1025D000BC008091BC0084FDFCCF10925805609136
:1025E000C405E0915E05F0915F0584EA95E070E036
:1025F00009951092C4052DC084E08093580510926F
:10260000A2051092A305E0915C05F0915D05099586
:102610008091A305882329F481E08093A30510927B
:1026200082059091A205E92FF0E0EE57FA4F8081E4
:102630008093BB009F5F9093A2059091A20580912B
:10264000A305981710F485EC01C085E88093BC00C1
:102650000FC085EC8093BC0009C01092C50585EDC4
:102660008093BC008091BC0084FDFCCF1092580583
:10267000FF91EF91BF91AF919F918F917F916F915A
:102680005F914F913F912F910F900FBE0F901F9030
:102690001895CF93DF93EC01DB01FA0161E040E094
:1026A00050E0262F30E08A8190E082239323892B0B
:1026B00079F08B8190E08095909528233923232B06
:1026C00021F08C919081892B8C938081880F80835D
:1026D000660F4F5F5F4F4830510519F7DF91CF917B
:1026E00008950F93FC01DB010283138289EF91E0CF
:1026F00091838083802F80958C9375836483DA0126
:102700000C9357834683318720870F910895FC01EE
:10271000A085B1858C91809583830895EF92FF9277
:102720000F931F937C0100E515E0DC011496ED91F9
:10273000FC911597C80160816EDCC801F7016781C3
:10274000EBDCC80160E015DDD7011496ED91FC913A
:102750001597C801608141E02CDDC8016FDC8095D0
:10276000F70183831F910F91FF90EF900895BF921F
:10277000CF92DF92EF92FF920F931F938C016B0128
:10278000B42EFC01428313828FEF91E0918380830A
:1027900075836483FB0181818A5FF8018683FB0175
:1027A0008181F801878380E5E82E85E0F82EC70156
:1027B00002DDC701F60160812EDCC701F8016681E8
:1027C000ABDCC7016B2DA8DCC701E5DC1F910F91C5
:1027D000FF90EF90DF90CF90BF90089508951F93E2
:1027E000CF93DF93EC0110E00CC0812F90E0880FB5
:1027F000991FE881F981E80FF91F8081918178D0D4
:102800001F5F8A81181788F3DF91CF911F91089578
:102810001F93CF93DF93EC0110E013C0812F90E062
:10282000880F991FEB81FC81E80FF91FA081B1810E
:10283000ED91FC9111970190F081E02DCD0109956A
:102840001F5F8D81181750F3DF91CF911F9108956D
:10285000AF92BF92CF92DF92FF920F931F93DF93BD
:10286000CF9300D0CDB7DEB78C0181E089831A8287
:10287000FF2452E0A52EB12CAC0EBD1E6E010894B3
:10288000C11CD11C11C08F2D90E0880F991FD80159
:102890001396ED91FC911497E80FF91F80819181B7
:1028A000B501A601F6DEF394F8018581F81658F318
:1028B000818590E0880F991F0680F781E02DE80F51
:1028C000F91F808191816A812ED0D80119968C914F
:1028D00019978F5F19968C930F900F90CF91DF917E
:1028E0001F910F91FF90DF90CF90BF90AF90089510
:1028F0001F93CF93DF93EC01198610E00DC0812F59
:1029000090E0880F991FE881F981E80FF91F808115
:102910009181BE0191D01F5F8A81181780F3DF91EA
:10292000CF911F910895AF92BF92CF92DF92EF9215
:10293000FF920F931F93CF93DF937C01162F80910B
:1029400003019091040150D1D70114968C91F701A5
:10295000E80FF11D10838F5FF7018483843008F046
:1029600014825FEF40E020E030E0F701E20FF31F58
:1029700080815823482B2F5F3F4F24303105A9F722
:10298000D70115969C911597842F8923852B282F85
:10299000292715968C93982F90959223282301E050
:1029A00010E0A92EBB24C22EDD2437C0C02FD0E0FA
:1029B000CE018A219B21892BA9F0812F90E0880FDD
:1029C000991FD7011696ED91FC911797E80FF91F03
:1029D000A081B181ED91FC9111970280F381E02DEE
:1029E000CD010995CC21DD21CD2BA9F0812F90E0DF
:1029F000880F991FD7011696ED91FC911797E80F54
:102A0000F91FA081B181ED91FC9111970190F081A6
:102A1000E02DCD010995000F1F5FF7018085181784
:102A200028F2DF91CF911F910F91FF90EF90DF90EF
:102A3000CF90BF90AF900895CF92DF92FF920F9307
:102A40001F93CF93DF938C016B01FF24F394C0E0BD
:102A5000D0E02F2D30E0D80112968C91129790E0A3
:102A600028233923232B59F0ED91FC910190F0811B
:102A7000E02DC8016F2DA6010995C601E9DEFF0C06
:102A80002196C830D10529F7DF91CF911F910F9181
:102A9000FF90DF90CF900895FC01DB01228385E059
:102AA00092E0918380838FEF8C937483638356834A
:102AB00045830895EF92FF921F937C01162FCA0160
:102AC000D7011596ED91FC9116972081262B208336
:102AD000E0EBF4E03197F1F79BDED7011596ED912D
:102AE000FC91169780811095812380831F91FF9020
:102AF000EF900895AF92BF92DF92EF92FF920F9303
:102B00001F937C01D62E5A0100E515E0DC011396D7
:102B1000ED91FC911497C80160817DDAC801F7013D
:102B20006681FADAD7011396ED91FC9114976281D0
:102B30006D296283C801F0DAC8012DDBC50168DEAA
:102B4000D7011396ED91FC911497C801608163DA67
:102B5000C801F7016681E0DAD7011396ED91FC9187
:102B60001497D0948281D822D282C8016D2DD4DAF4
:102B7000C80111DB1F910F91FF90EF90DF90BF9084
:102B8000AF900895CF92DF92EF92FF920F931F9331
:102B90007C016B01FC0142838BE092E09183808396
:102BA00074836383FB0181818A5FF7018583FB0165
:102BB00081818E5FF701868300E515E0C801FBDAAD
:102BC000C801F601608127DAC801F7016581A4DA3E
:102BD000C80160E0A1DAC801DEDA1F910F91FF9011
:102BE000EF90DF90CF900895FC010190F081E02DEF
:102BF000329738F031F0EE0FFF1FEE0FFF1F3197C5
:102C0000F1F70895FC01628173818EEC95E00CC3AD
:102C1000FC01628173818EEC95E0A7C2CF93DF93B4
:102C2000EC018B81662351F0882381F46C817D81D6
:102C30008EEC95E09AD281E08B8308C0882331F036
:102C40006C817D818EEC95E0EFD21B82DF91CF917C
:102C50000895FC016281E2CFFC01128260E0DECFC8
:102C6000FC0181E08283CF0161E0D8CF8EEC95E05A
:102C700067E270E4D9C2EF92FF920F931F93E09046
:102C80000501F0900601C701A6D00EEC15E0C801C1
:102C900067E270E46AD2C80167E270E4C5D2C80195
:102CA00067E270E462D2C70176D01F910F91FF9066
:102CB000EF900895FC01628173818EEC95E0B4C2BF
:102CC000EF92FF920F931F938C01E0900501F0901B
:102CD0000601C7019AD0F801628173818EEC95E0FC
:102CE00044D2C70171D01F910F91FF90EF900895CA
:102CF000DC011296ED91FC911397A081B1812D9189
:102D00003C91CF01F90109950895DC011296ED91EE
:102D1000FC911397A081B18112962D913C9113974C
:102D2000CF01F90109950895FC01848190E0880F95
:102D3000991F0280F381E02DE80FF91FA081B18176
:102D4000ED91FC9111970280F381E02DCD01099561
:102D500008950F931F938C018091090190910A01AE
:102D6000C9D0D80114968C93149790E0880F991FBE
:102D70001296ED91FC911397E80FF91FA081B18194
:102D8000ED91FC9111970190F081E02DCD01099515
:102D90001F910F9108951F93CF93DF93EC0110E0E3
:102DA0000CC0812F90E0880F991FE881F981E80F0E
:102DB000F91F808191814DDF1F5F8A81181788F389
:102DC000DF91CF911F910895FC010190F081E02DDA
:102DD000808191813ECF1F93CF93DF93EC0110E070
:102DE0000DC0812F90E0880F991FE881F981E80FCD
:102DF000F91F8081918160E011DF1F5F8A811817C0
:102E000080F3DF91CF911F910895FC010190F08133
:102E1000E02D8081918161E001CF029700C0FC012B
:102E200084ED95E064817EC2029700C0FC0184EDD0
:102E300095E0648168C208950895029700C0FC017E
:102E400084ED95E064814681208526C210920905B3
:102E50000895FC01809107019091080162813FD0A3
:102E600081E08093090508950895FC01809109058A
:102E7000882331F0809107019091080162812FC071
:102E80000895809107019091080130C08091070159
:102E9000909108016091020126C008958091070178
:102EA00090910801609102011AC008950F931F9339
:102EB0008C018091070190910801F80162810FD087
:102EC000F8018281809302011F910F910895089566
:102ED000FC018091070190910801628100C0FC0112
:102EE000608361830895FC0160830895FC01818102
:102EF00080830895FC01808108957DD30E94CA01DA
:102F00000E94D907FDCFCF92DF92EF92FF920F93ED
:102F10001F93CF93DF937C016B018A01C0E0D0E067
:102F20000FC0D6016D916D01D701ED91FC9101901B
:102F3000F081E02DC7010995C80FD91F015010403D
:102F40000115110571F7CE01DF91CF911F910F91FE
:102F5000FF90EF90DF90CF9008958091E405882353
:102F600009F441C02FB7F89483E08093E900909171
:102F7000E4009E5C33E08091E80085FD0EC02FBF29
:102F80008091E405882379F18091E400891759F153
:102F90002FB7F8943093E900EECF8091E705809346
:102FA000F1008091E8058093F1008091E90580931C
:102FB000F1008091EA058093F1008091EB05809308
:102FC000F1008091EC058093F1008091ED058093F4
:102FD000F1008091EE058093F1008AE38093E80090
:102FE0001092EF052FBF0895CF93DF93EC0166FD9C
:102FF00002C080E001C082E08093E7051092E805FE
:103000006F736093E9051092EA051092EB05109238
:10301000EC051092ED051092EE05CE019EDF1092A8
:10302000E7051092E905CE0198DFDF91CF91089571
:10303000662309F0D9CF0895DC0167FD06C0139619
:103040001C921397E62FF0E013C0603CB8F56F7345
:1030500013962C9113972130E9F413961C92139731
:10306000E62FF0E014968D919C911597E82BF92BA3
:10307000E032F10520F43A9749F468E208C0E038FC
:10308000F10520F4E457FF4F649101C060E0CD01E9
:10309000CFDF34C0223091F5862F90E036E0880FE4
:1030A000991F3A95E1F714962D913C911597282B8D
:1030B000392B15963C932E9314970FC0603E78F4ED
:1030C000862F90E08F71907026E0880F991F2A95C7
:1030D000E1F715969C938E93149781E00DC0603FA5
:1030E00050F46295607F14961C92149715966C9319
:1030F000159782E001C08FEF13968C9381E090E0EA
:103100000895DC01442381F05091E705242F30E03D
:10311000852F90E0822393238217930729F0542B65
:103120005093E70591E001C090E06623C9F0E9EE15
:10313000F5E080818617A1F0319685E0EF3EF80733
:10314000C1F722E030E0F901E951FA4F808188238C
:1031500011F4608307C02F5F3F4F2830310599F786
:10316000992311F0CD01F9CE0895DC01FB018F2FD9
:10317000825C8E3178F4CB018F739070EF2FF0E08A
:10318000EF71F07046E0EE0FFF1F4A95E1F7E82B74
:10319000F92B0BC0F03821F4CD0160E04E2F04C0B4
:1031A000F03419F4CD0140E0ACCFE032F10520F469
:1031B0003A9791F468E208C0E038F10568F4E45702
:1031C000FF4F6491662341F066FD02C040E001C0FC
:1031D00042E06F73CD0195CF0895DC01442381F067
:1031E0005091E705842F90E0252F30E08223932330
:1031F000892B31F0409554235093E70591E001C0AD
:1032000090E0662361F0E9EEF5E08081861711F425
:10321000108291E0319685E0EF3EF807B1F79923EF
:1032200011F0CD019ACE0895DC01FB018F2F825C55
:103230008E3178F4CB018F739070EF2FF0E0EF7147
:10324000F07056E0EE0FFF1F5A95E1F7E82BF92BCF
:103250000BC0F03821F4CD0160E04E2F04C0F034F3
:1032600019F4CD0140E0B9CFE032F10520F43A97EE
:1032700091F468E208C0E038F10568F4E457FF4FC4
:103280006491662341F066FD02C040E001C042E067
:103290006F73CD01A2CF08958091E405882391F149
:1032A000603809F461E8403809F441E8203809F44D
:1032B00021E83FB7F89484E08093E9009091E4001E
:1032C0009E5C54E08091E80085FD0EC03FBF809178
:1032D000E4058823B9F08091E400891799F03FB79D
:1032E000F8945093E900EECF8091F1058093F100BE
:1032F0006093F1004093F1002093F1008AE3809302
:10330000E8003FBF08959C018091F1056770682B2C
:103310006093F105681729F0C90160E040E020E002
:10332000BBCF08959C018091F1056770609568237B
:103330006093F105681729F0C90160E040E020E0E2
:10334000ABCF08952FB7F8948091E405882341F01E
:1033500082E08093E9003BE68091E80085FD03C0B0
:103360002FBF90E00FC09091F100992319F4309392
:10337000E800F2CF8091E80085FD03C08BE68093E2
:10338000E8002FBF892F08952091D605222349F404
:10339000D9DF882319F42FEF3FEF04C08093D605BF
:1033A000282F30E0C90108952091D605222319F075
:1033B0001092D60507C0C6DF882319F42FEF3FEF20
:1033C00002C0282F30E0C90108959C018091D605E4
:1033D000882349F4C901B6DF882319F420E030E0DE
:1033E00004C08093D60521E030E0C90108958091A2
:1033F000E405882371F09FB7F89482E08093E90098
:103400002BE602C02093E8008091E80085FDFACF0A
:103410009FBF1092D6050895FC018091E405882392
:1034200071F12FB7F89481E08093E9009091E40066
:10343000975E31E08091E80085FD0EC02FBF80913E
:10344000E4008917E1F08091E4058823C1F02FB7EB
:10345000F8943093E900EECF6093F1008091E8009A
:1034600085FD06C08AE38093E8001092E60503C05C
:1034700084E08093E6052FBF21E030E004C081E0C6
:10348000828320E030E0C9010895E6ECF5E088E0B1
:10349000DF011D928A95E9F71092C80588EE93E046
:1034A000A0E0B0E08093C9059093CA05A093CB0536
:1034B000B093CC051092CD0581E992E09093C705B9
:1034C0008093C605EEECF5E086E0DF011D928A955B
:1034D000E9F71092D00581EA92E09093CF058093AE
:1034E000CE051092D50508951DBA109268001CBC37
:1034F00010BE1FBA10927A0010926E0010926F00E8
:1035000010927100109272001092C900ECEBF0E082
:10351000108214B817B81AB81DB810BA108215B8AE
:1035200018B81BB81EB811BA0895F89484B7877FED
:1035300084BF809160008061809360001092600081
:1035400080E29EE40197F1F781E08093E00080E261
:103550008093D80080E69AEE0197F1F7C5DF0C94CE
:10356000003FFFCFF894C0DF80E69AEE0197F1F7B5
:103570000C940000FFCF8F938FB78F938091DF055E
:103580008D5F8D37D0F48093DF058091DB058F5FF1
:103590008093DB05D8F08091DC058F4F8093DC05AC
:1035A000A8F08091DD058F4F8093DD0578F0809144
:1035B000DE058F4F8093DE0509C08D578093DF05B0
:1035C0008091DB058E5F8093DB0528F78091D7051E
:1035D0008C5F8093D70558F08091D8058F4F8093EA
:1035E000D80528F08091D9058F4F8093D9058F9108
:1035F0008FBF8F911895F894E1E6F0E020E82083E2
:10360000108283E084BD85BDEEE6F0E080818160BC
:10361000808391E09093800082E08093810090937A
:103620009000809391008093C00084E08093C1005B
:103630009093C2009093C3001092C40086E88093D8
:103640007A0020937B0010927E0010927D0002D0C1
:10365000789408958091D80087FF02C085FF56C0F6
:1036600081E08093D70080EA8093D80082E189BD11
:1036700009B400FEFDCF80E98093D8001092E000ED
:103680001092E4051092E5051092E6051092E70508
:103690001092E8051092E9051092EA051092EB05E8
:1036A0001092EC051092ED051092EE0591E09093CA
:1036B000E1058DE78093E2051092EF051092F00589
:1036C0001092F1059093E3051092F2051092F30524
:1036D0001092F4051092F5058FE08093F60520E234
:1036E0002093F70590E89093F8051092F90582E091
:1036F0008093FA0588E08093FB052093FC05909366
:10370000FD051092E1008CE08093E20008951F9285
:103710000F920FB60F9211242F933F938F939F9385
:10372000EF93FF938091E1001092E100382F83FF27
:103730000FC01092E90081E08093EB001092EC0042
:1037400082E38093ED0088E08093F0001092E4051E
:1037500032FF45C08091E405882309F440C0809180
:10376000E605882391F081508093E605882369F46B
:1037700081E08093E90002C01092F1008091E8009E
:1037800085FDFACF8AE38093E8002091E2052223A9
:1037900031F18091E0058F5F8093E00590E08370C8
:1037A0009070892BE1F483E08093E9008091E80038
:1037B00085FF15C08091EF058F5F8093EF0582171D
:1037C00071F41092EF05E7EEF5E081918093F1003E
:1037D00085E0EF3EF807C9F78AE38093E80030FF01
:1037E0000CC080E18093E2001092E40581E08093B8
:1037F000E50580EA8093D80019BC8091E50588230F
:1038000079F034FF0DC082E189BD09B400FEFDCF1F
:1038100080E98093D8008DE08093E2001092E50566
:10382000FF91EF919F918F913F912F910F900FBE3C
:103830000F901F9018951F920F920FB60F921124A0
:103840002F933F934F935F936F937F938F939F93A8
:10385000AF93BF93EF93FF931092E9008091E8003C
:1038600083FFC1C17091F1009091F1004091F1008E
:103870005091F1002091F1003091F100A091F10000
:10388000B091F10082EF8093E800963009F044C0D7
:10389000ECE0F1E060E0859195918417950711F0D7
:1038A000359617C0859195918217930711F033963D
:1038B00010C0259135914491CD01AF3FB10519F06C
:1038C00010F08FEF90E0841708F4482FF9015EEFB5
:1038D00004C06F5F6C30F9F686C18091E800282F34
:1038E00030E0C90185709070892BB9F322FD7EC14B
:1038F000242F413408F020E4922F04C08591809356
:10390000F10091509923D1F7421B5093E8004423D2
:1039100021F7203411F36AC1953061F48EEF809362
:10392000E8008091E80080FFFCCF842F80688093BE
:10393000E3005CC19930F9F4772309F068C0409343
:10394000E4051092E6058EEF8093E800E0E6F1E0F2
:1039500091E09093E90085918093EB00882331F00A
:1039600085918093EC0085918093ED009F5F973067
:1039700081F78EE147C0983051F4703809F047C0A4
:103980008091E80080FFFCCF8091E405A6C09923D8
:10399000C1F48091E80080FFFCCF723811F080E024
:1039A0000DC02093E9008091EB0090E025E0969512
:1039B00087952A95E1F781701092E9008093F100D4
:1039C00080C0913011F0933011F5723001F541153E
:1039D0005105E9F4622F6F77862F81508730B8F454
:1039E0008EEF8093E8006093E900933009F4FBC008
:1039F00089E18093EB0081E090E002C0880F991F7D
:103A00006A95E2F78093EA001092EA00EFC0211570
:103A1000310509F043C0713A19F5913071F4809184
:103A2000E80080FFFCCFE7EEF5E081918093F100A4
:103A300085E0EF3EF807C9F770C0923039F4809105
:103A4000E80080FFFCCF8091E20547C0933009F089
:103A5000BEC08091E80080FFFCCF8091E1053DC0B1
:103A6000713209F05EC0993061F48091E80082FF04
:103A7000FCCF8091F1008093F0058BEF8093E800FC
:103A80004CC09A3029F45093E2051092EF0545C0DE
:103A90009B3009F046C04093E1053FC0213031051D
:103AA00031F5713AE9F4913079F48091E80080FFC2
:103AB000FCCF8091F1058093F1001092F1001092FB
:103AC000F1001092F10029C0933009F080C080917C
:103AD000E80080FFFCCF8091E3058093F1001DC0DA
:103AE0007132F9F49B30E9F44093E30516C02330BA
:103AF0003105B9F4713A09F06AC0913009F067C034
:103B00008091E80080FFFCCFE2EFF5E081918093A7
:103B1000F10085E0EE3FF807C9F78EEF8093E800EB
:103B200065C02230310509F052C0913019F5713A63
:103B300009F059C04A2F5EEF8091E800282F30E04D
:103B4000C90185709070892BB9F322FD4FC0942F65
:103B5000413408F090E4892F03C01092F1008150A5
:103B60008823D9F7491B5093E800442329F7903460
:103B700019F33CC0993059F57132A9F540505340C2
:103B800091F5149781F58091E80082FFFCCF909128
:103B9000F1002091F1003091F1004091F1008BEFA4
:103BA0008093E8008EEF8093E800993A39F4253449
:103BB000D1F4323CC1F44B36B1F4B7DC9B3899F404
:103BC000253C89F43D3179F4403769F40BC0993CC8
:103BD00051F4703441F48EEF8093E8008091E80056
:103BE00080FFFCCFBFDC81E28093EB00FF91EF917F
:103BF000BF91AF919F918F917F916F915F914F9105
:103C00003F912F910F900FBE0F901F901895EE0FC0
:0E3C1000FF1F0590F491E02D0994F894FFCF6A
:103C1E00A60201020504050705070500000000C8FD
:103C2E0001C901E804E804A003A602A602C003C06D
:103C3E00036803E803E803C403C4036C03F003F052
:103C4E0003C803FC04C8032004200428038403785B
:103C5E000300040004B4038803C403080408045CCE
:103C6E0003C004D8041C041C043003B403A4030CC6
:103C7E00040C042803C8048003EC03EC033403CCC7
:103C8E00048403F403F4033803D004C804140414A6
:103C9E0004F004F404F404A403A4030403BC04BC5D
:103CAE0004E003E0036003A403CC04D003D003FCC0
:103CBE00026403C003000500054803F804F8048CF1
:103CCE00038C0300033404000534043404A803BC3D
:103CDE0003BC03040404040C03B404B404E403E4BA
:103CEE00035403B004B004DC03DC033C03AC04ACAB
:103CFE0004D403D403000000008C105C1015101EB9
:103D0E001033104410000000008713000000008ED6
:103D1E0013000000005A15000000007A1500000084
:103D2E0000081602160000000030162C16000000C7
:103D3E00003B1636160000000060165A16000000F2
:103D4E00007816851600000000A9169416000000D3
:103D5E000016170F17FEFF000014170D17000000B6
:103D6E00001F171C17FEFF00001D171B1700000079
:103D7E000029172617000000003517341700000021
:103D8E000046174117000000004E174D17000000A7
:103D9E00005617551700000000681767170000003F
:103DAE00000C1A8317E519D419C419F7190000006D
:063DBE00001C1883170031
:00000001FF
